:100000000A128A11ED2FFF0000308A007F08820754
:1000100008280A128A11DB2C0A128A110E2F0A12E2
:100020008A113C2D00308A000408840A82070034BB
:100030004E346D34723420347034723469346D341B
:100040006F343A34203420342034203400344E3499
:100050006D347234203463346F346D3470346F34E3
:0A006000733474346F343A34003402
:1008A4000134073400340434003400340034831237
:1008B40003133208F200F3017208F0007308F10028
:1008C4000800F5007508F40006300310F40DFF3E2F
:1008D400031D672C730874077F39803E0A128A113E
:1008E4009A260A128A1108007E088A007F0882006C
:1008F4000A128A1176240A128A118000840A0408D2
:100904007D0603190034FF0A0319FE0A7A2CF40049
:100914000830F1007108F500F6017408F1000730A1
:100924000310F10CFF3E031D922C7608F2007207AF
:100934007104F3007308F6000310F40D70087602D6
:10094400031CA52CA62CA82C7008F6020130F50275
:10095400031DAD2CAE2C8F2C76080800F1008312F9
:10096400031308167108F00004300310F00CFF3E66
:10097400031DB72C08087006F03970068800881229
:100984000D30F000F00BC42C8312031388160816E4
:100994000F307105F00008087006F0397006880001
:1009A40088120D30F000F00BD52C83120313881637
:1009B4000800831603130810881008118811081200
:1009C40088120817881783160317890183160313DF
:1009D4008601831203138601881628300A128A11AD
:1009E4009A260A128A110C300A128A119A260A12BD
:1009F4008A1101300A128A119A260A128A110230C7
:100A04000A128A119A260A128A110800F800F901BA
:100A14007808F7007708FA00FB01352D7B08F7000A
:100A24007708F0007A080A128A1189240A128A11B6
:100A3400003A031D1E2D1F2D232D0130F7007708CA
:100A4400F90702307906031D282D292D2E2D831236
:100A54000313B201B20A312D83120313B201013020
:100A6400F7007708FB077B087A0203183A2D3B2D21
:100A7400102D0800F30100300A128A1163240A12AF
:100A84008A11672D760884000A128A1112200A122C
:100A94008A110A3A031D4F2D502D572DF3010130B1
:100AA4000A128A1163240A128A11760884000A122F
:100AB4008A1112200A128A110A128A11B0240A1207
:100AC4008A110130F7007708F607760884000A12C5
:100AD4008A1112200A128A11003A031D722D732DF5
:100AE400442D0800F601F31F782D792D802DF2098D
:100AF400F309F20A0319F30AF601F60AF11F832D2A
:100B0400842D892DF009F109F00A0319F10A7008FE
:100B1400710403198E2D8F2DBE2DF501F50A9D2D1F
:100B240001300310F00DF10DFF3E031D932D013034
:100B3400F4007408F507F11FA02DA12D922D710862
:100B44007302031DA72D70087202031CAA2DAB2D7E
:100B5400B12D7008F2027108031CF303F302013093
:100B64000310F10CF00CFF3E031DB22D0130F50211
:100B7400031DBD2DBE2DA12D76080319C22DC32D35
:100B8400C82DF209F309F20A0319F30A7308F100F4
:100B94007208F00008000B3083120313A900003020
:100BA400AA002B080A128A1103200A128A1183123E
:100BB400031329080A128A1108250A128A110A1233
:100BC4008A1159240A128A11700871040319EB2D31
:100BD400EC2D0E2E013083120313A7002708F60014
:100BE4002C080A128A1103200A128A11F9010D3005
:0C0BF40083120313A7002708FA002A0848
:100C0000FC002908FB000330A8002808FD002E087E
:100C10000A128A1103200A128A111A2E1030831226
:100C20000313A7002708F6002C080A128A110320D4
:100C30000A128A11F9010D3083120313A700270845
:100C4000FA002A08FC002908FB000330A800280845
:100C5000FD002E080A128A1103200A128A11D92DCA
:100C60000A128A110028F601F11F372E382E3F2E66
:100C7000F009F109F00A0319F10AF601F60AF31F67
:100C8000422E432E4C2EF209F309F20A0319F30AFD
:100C90000130F4007408F606F701F80170087104D9
:100CA0000319532E542E8B2EF501F50A622E0130B6
:100CB0000310F00DF10DFF3E031D582E0130F4001E
:100CC0007408F507F11F652E662E572E01300310AC
:100CD000F70DF80DFF3E031D672E71087302031D0B
:100CE000732E70087202031C762E772E7E2E7008EB
:100CF000F2027108031CF303F302771401300310AE
:100D0000F10CF00CFF3E031D7F2E0130F502031D98
:100D10008A2E8B2E662E760803198F2E902E952EF6
:100D2000F709F809F70A0319F80A7808F1007708B3
:100D3000F0000800F2008312031308127208F0009A
:100D400004300310F00CFF3E031DA12E08087006AE
:100D5000F03970068800881272030319B02EB12E84
:100D6000B72E02307206031DB62EB72EC12E0330E9
:100D7000F1009730F000F00BBB2EF10BBB2EC02E14
:100D8000C52E0D30F000F00BC32E8312031388160E
:100D9000F0307205F00020307006031DD02ED12EE9
:100DA000E72E08127208F00004300310F00CFF3E2A
:100DB000031DD52E08087006F039700688008812C9
:100DC0000D30F000F00BE22E831203138816081288
:100DD0000F307205F00008087006F03970068800C0
:100DE000881272030319F52EF62EFC2E02307206BD
:100DF000031DFB2EFC2E062F0330F1009730F00070
:100E0000F00B002FF10B002F052F0A2F0D30F000F3
:100E1000F00B082F8312031388160800FC1B112FF8
:100E2000132F0130142F003083120313A000200869
:100E3000A400240803191D2F1E2F232FFB09FC09D2
:100E4000FB0A0319FC0A7A08A0002008F3007908BD
:100E50000A128A1163240A128A11103083120313B2
:100E6000A5002730A6000530A0002008A300642FAD
:100E7000831203132608F1002508F0007C08F30014
:100E80007B08F2000A128A1133260A128A117008AE
:100E90007104031D4C2F4D2F7A2F01308312031341
:100EA000A3020A30F0000030F1002608F300250804
:100EB000F2000A128A1133260A128A11710883126B
:100EC0000313A6007008A5002608803AFF008030B2
:100ED0007F02031D6D2F013025020318702F712F23
:100EE000382F7A2F20300A128A11B0240A128A1160
:100EF0000130FD028312031323082407A000A1017F
:100F0000A10D2108803AA20080302202031D8A2F01
:100F10007D08200203188D2F8E2F942F02307D0222
:100F20000318932F942F722F83120313240803198D
:100F30009A2F9B2FA12F2D300A128A11B0240A124A
:100F40008A11831203132608F1002508F0007C089B
:100F5000F3007B08F2000A128A1133260A128A1162
:100F60007008303E0A128A11B0240A128A118312C4
:100F700003132608F1002508F0007C08F3007B0825
:100F8000F2000A128A1174250A128A117108FC00F3
:100F90007008FB000A30F0000030F10083120313E8
:100FA0002608F3002508F2000A128A1133260A12D5
:100FB0008A11710883120313A6007008A500260881
:100FC000803AFF0080307F02031DE82F01302502A8
:100FD0000318EB2FEC2FA12F080083133230FD00F4
:100FE0000430FE005230FF002B3084000A128A11B8
:100FF0007A240A128A11B20183010A128A11CD2DB4
:04400E00D420FF3F7C
:00000001FF
